:100000000C9482000C94AA000C94AA000C94AA00F0
:100010000C94AA000C94AA000C94AA000C94AA00B8
:100020000C94AA000C94AA000C94AA000C94AA00A8
:100030000C94AA000C94AA000C94AA000C94AA0098
:100040000C94C6030C94AA000C9436040C9410046F
:100050000C94AA000C94AA000C94AA000C94AA0078
:100060000C94AA000C94AA004661696C6564207423
:100070006F20696E69742054444337323030002D4C
:100080002D205374617274696E6720544443373273
:1000900030302074657374202D2D00000000002383
:1000A000002600290009746F660064656C61793D63
:1000B0000000000000240027002A000000000025A6
:1000C0000028002B000404040404040404020202B7
:1000D0000202020303030303030102040810204089
:1000E0008001020408102001020408102000000012
:1000F00008000201000003040700000000000000E7
:100100000000680411241FBECFEFD8E0DEBFCDBFD2
:1001100011E0A0E0B1E0ECE0F4E102C005900D9246
:10012000A631B107D9F721E0A6E1B1E001C01D92E7
:10013000A73DB207E1F710E0C2E8D0E004C0219784
:10014000FE010E94EA09C138D107C9F70E94AB0439
:100150000C94040A0C940000833081F028F4813060
:1001600099F08230A1F008958730A9F08830B9F075
:100170008430D1F4809180008F7D03C08091800015
:100180008F7780938000089584B58F7702C084B5FF
:100190008F7D84BD08958091B0008F7703C08091DA
:1001A000B0008F7D8093B00008951F93CF93DF93AD
:1001B000282F30E0F901E351FF4F8491F901E75214
:1001C000FF4FD491F901EB53FF4FC491CC23C1F001
:1001D000162F81110E94AC00EC2FF0E0EE0FFF1FF4
:1001E000E554FF4FA591B4919FB7F894111104C045
:1001F0008C91D095D82302C0EC91DE2BDC939FBF6D
:10020000DF91CF911F910895CF93DF9390E0FC0190
:10021000E752FF4F2491FC01EB53FF4F8491882359
:1002200061F190E0880F991FFC01EF54FF4FC591D9
:10023000D491FC01E554FF4FA591B491611109C01F
:100240009FB7F8948881209582238883EC912E2390
:100250000BC0623061F49FB7F8948881322F3095DB
:1002600083238883EC912E2B2C939FBF06C08FB7DE
:10027000F894E8812E2B28838FBFDF91CF910895CA
:100280003FB7F89480911C0190911D01A0911E012F
:10029000B0911F0126B5A89B05C02F3F19F001960C
:1002A000A11DB11D3FBFBA2FA92F982F8827820FFC
:1002B000911DA11DB11DBC01CD0143E0660F771F4B
:1002C000881F991F4A95D1F708958F929F92AF92F8
:1002D000BF92CF92DF92EF92FF926B017C010E945E
:1002E00040014B015C01C114D104E104F104F1F0BF
:1002F0000E944001DC01CB0188199909AA09BB09B8
:10030000883E9340A105B10570F321E0C21AD108DF
:10031000E108F10888EE880E83E0981EA11CB11C4C
:10032000C114D104E104F10419F7DDCFFF90EF907F
:10033000DF90CF90BF90AF909F908F900895CF9215
:10034000DF92EF92FF920F931F93CF93DF936C0195
:100350007A018B01C0E0D0E0CE15DF0581F0D80135
:100360006D918D01D601ED91FC910190F081E02D10
:10037000C6010995892B11F02196EECF7E01C701A8
:10038000DF91CF911F910F91FF90EF90DF90CF9071
:100390000895089580E090E00895FC01538D448D08
:1003A000252F30E0842F90E0821B930B541710F020
:1003B000CF96089501970895FC01918D828D98172D
:1003C00061F0828DDF01A80FB11D5D968C91928D39
:1003D0009F5F9F73928F90E008958FEF9FEF089536
:1003E000FC01918D828D981731F0828DE80FF11DFF
:1003F000858D90E008958FEF9FEF0895FC01918D1A
:10040000228D892F90E0805C9F4F821B91098F7312
:100410009927089580E291E00E94FE0121E0892B56
:1004200009F420E0822F0895FC01848DDF01A80FDC
:10043000B11DA35ABF4F2C91848D90E001968F730C
:100440009927848FA689B7892C93A089B1898C912B
:10045000837080648C93938D848D981306C002887A
:10046000F389E02D80818F7D80830895EF92FF9244
:100470000F931F93CF93DF93EC0181E0888F9B8DC7
:100480008C8D981305C0E889F989808185FD26C087
:10049000F62E0B8D10E00F5F1F4F0F731127E02E0C
:1004A0008C8DE8120CC00FB607FCFACFE889F989E9
:1004B000808185FFF5CFCE010E941402F1CF8B8D94
:1004C000FE01E80FF11DE35AFF4FF0829FB7F89449
:1004D0000B8FEA89FB89808180620AC09FB7F894FC
:1004E000EE89FF896083E889F9898081837080645F
:1004F00080839FBF81E090E0DF91CF911F910F91AA
:10050000FF90EF9008950F931F93CF93DF938C018B
:10051000C0E0D0E0F801EC0FFD1F6491662341F0CC
:1005200080E291E00E943602892B11F02196F2CFF1
:10053000CE01DF91CF911F910F910895CF93DF935B
:10054000EC01888D8823C9F0EA89FB89808185FDCB
:1005500005C0A889B9898C9186FD0FC00FB607FC2C
:10056000F5CF808185FFF2CFA889B9898C9185FF6D
:10057000EDCFCE010E941402E7CFDF91CF91089515
:1005800080E090E0892B29F00E940A0281110C94EE
:100590000000089508958EBD00000DB407FEFDCF44
:1005A0008EB508958CBD9DBD0895009769F0FC013E
:1005B00001900020E9F73197AF01481B590BBC01AE
:1005C00080E291E00C949F0180E090E00895CF9349
:1005D000DF930E948302EC0182E191E00E94D50248
:1005E0008C0F9D1FDF91CF9108958F929F92AF92B4
:1005F000BF920F931F93CF93DF93CDB7DEB7A19731
:100600000FB6F894DEBF0FBECDBF19A2423008F47A
:100610004AE08E010F5D1F4F842E912CA12CB12C2E
:10062000A50194010E941808E62FB901CA010150E2
:100630001109EA3014F4E05D01C0E95CD801EC93E3
:10064000232B242B252B61F7C8010E94D502A196EC
:100650000FB6F894DEBF0FBECDBFDF91CF911F91D3
:100660000F91BF90AF909F908F900895CF92DF929F
:10067000EF92FF921F93CF93DF93182F80E591E0C5
:100680000E94D202CDEBD1E060E089810E94D500CA
:10069000812F8F710E94CB0280E00E94CB02C82E76
:1006A000D12CE12CF12CFE2CED2CDC2CCC2480E088
:1006B0000E94CB02C82AFE2CED2CDC2CCC2480E03E
:1006C0000E94CB02C82A61E089810E94D500C7013F
:1006D000B601DF91CF911F91FF90EF90DF90CF9007
:1006E0000895CF93DF93D82FC62F80E591E00E9425
:1006F000D20260E08091BE010E94D500DF71D0641B
:100700006C2F70E07D2B0CB405FC0CC07EBD00008E
:100710000DB407FEFDCF8EB56EBD00000DB407FE13
:10072000FDCF0BC0CEBD00000DB407FEFDCF8EB5D2
:100730007EBD00000DB407FEFDCF8EB561E0809157
:10074000BE01DF91CF910C94D5001F93CF93DF931F
:10075000182F80E591E00E94D202CDEBD1E060E05D
:1007600089810E94D500812F8F710E94CB0280E089
:100770000E94CB02182F61E089810E94D500812F51
:10078000DF91CF911F9108950E94FF091F920F9250
:100790000FB60F9211242F933F938F939F93AF9394
:1007A000BF938091180190911901A0911A01B09105
:1007B0001B013091170126E0230F2D3720F40296FC
:1007C000A11DB11D05C029E8230F0396A11DB11D70
:1007D000209317018093180190931901A0931A0197
:1007E000B0931B0180911C0190911D01A0911E01ED
:1007F000B0911F010196A11DB11D80931C01909322
:100800001D01A0931E01B0931F01BF91AF919F9155
:100810008F913F912F910F900FBE0F901F901895C1
:100820001F920F920FB60F9211242F933F934F9365
:100830005F936F937F938F939F93AF93BF93EF9348
:10084000FF9380E291E00E941402FF91EF91BF912B
:10085000AF919F918F917F916F915F914F913F9158
:100860002F910F900FBE0F901F9018951F920F920F
:100870000FB60F9211242F938F939F93EF93FF93B3
:10088000E0913001F09131018081E0913601F091E9
:10089000370182FD12C09081809139018F5F8F7383
:1008A00020913A01821751F0E0913901F0E0E05EC9
:1008B000FE4F958F8093390101C08081FF91EF91A8
:1008C0009F918F912F910F900FBE0F901F901895B1
:1008D000E0E2F1E01382128288EE93E0A0E0B0E063
:1008E00084839583A683B78384E091E0918380839A
:1008F00085EC90E09587848784EC90E097878687E5
:1009000080EC90E0918B808B81EC90E0938B828BDC
:1009100082EC90E0958B848B86EC90E0978B868BB5
:10092000118E128E138E148EEDEBF1E084E0808335
:100930008AE0818388E498EEA1E0B0E0828393832B
:10094000A483B583128A138A148A158A168A178A91
:10095000108E118E0895CF93DF93CDB7DEB7E39756
:100960000FB6F894DEBF0FBECDBF789484B5826019
:1009700084BD84B5816084BD85B5826085BD85B543
:10098000816085BD80916E00816080936E001092C1
:10099000810080918100826080938100809181003C
:1009A00081608093810080918000816080938000CD
:1009B0008091B10084608093B1008091B00081602B
:1009C0008093B00080917A00846080937A00809157
:1009D0007A00826080937A0080917A008E7F809383
:1009E0007A0080917A00806880937A001092C1002A
:1009F000E0913001F091310182E08083E0912C019F
:100A0000F0912D011082E0912E01F0912F0188E0EC
:100A1000808310923801E0913401F091350186E035
:100A20008083E0913201F091330180818061808385
:100A3000E0913201F0913301808188608083E09100
:100A40003201F0913301808180688083E09132012E
:100A5000F091330180818F7D80838FE790E00E9449
:100A6000E7020FEC10E083EEE82E80E0F82E60E065
:100A70008091BD010E94D50061E08091BD010E947E
:100A8000040165E070E080E090E00E94650161E0B3
:100A90008091BD010E94D50062E070E080E090E0AE
:100AA0000E94650161E08091BE010E94D50061E075
:100AB0008091BE010E940401DFB6F8948091160176
:100AC000811126C0F8018491F7012491E82FF0E00C
:100AD000EE0FFF1FEF54FF4FA591B4919C91822F11
:100AE000892321F461E08AE00E94D50061E08AE078
:100AF0000E9404018CB580618CBD8CB580648CBD76
:100B000061E08DE00E94040161E08BE00E9404013D
:100B1000809116018F5F80931601DFBE81E00E94F5
:100B2000A503803409F0F1C083E00E94A50387305B
:100B300009F0EBC067E083E00E94710362E082E0AD
:100B40000E94040160E086E00E94D50061E086E03A
:100B50000E94040160E085E00E94D50061E085E02C
:100B60000E9404018AE08093C30185E08093C6015E
:100B700082E08093C5018093C401A091CF01ABA70F
:100B8000B091D001BCA77090D1016090D20150907B
:100B9000D3014090D4013090D5012090D6019D0121
:100BA000472D562D652D742D832D922DA0E00E948A
:100BB000DE0919F10091BF011091C0012091C1011E
:100BC0003091C20158016901E12CF12C00E010E0E4
:100BD0002BA53CA5472D562D652D742D832D922DCB
:100BE0000E94F10849015A01FFEF8F169F06A104E8
:100BF000B10418F4122F092D02C01FEF0FEF6FEF91
:100C000084E00E9471036FEF85E00E947103602F02
:100C100086E00E947103612F87E00E9471038BA51B
:100C20008093CF019CA59093D0017092D1016092E6
:100C3000D2015092D3014092D4013092D50120923A
:100C4000D6018091C40181608093C40164E481E095
:100C50000E947103DE011196BAA7A9A78AEA90E063
:100C60000E9483024AE064E670E080E090E00E9427
:100C7000F5026FE182E00E9471031092C7011092A9
:100C8000C8011092C9011092CA011092CB011092B2
:100C9000CC011092CD011092CE016091C40180E090
:100CA0000E947103F89461E086E00E94D50060E044
:100CB00086E00E94D50015E084EC90E00197F1F702
:100CC00061E085E00E94D50060E085E00E94D500EB
:100CD000115091F77894EFEEF0E08491EBEDF0E0B5
:100CE0001491E7ECF0E004910023D1F081110E940F
:100CF000AC00E02FF0E0EE0FFF1FE556FF4FA5918F
:100D0000B4918C91182361F0E6CF88E690E00E94C0
:100D1000E70268EE73E080E090E00E946501A7CEF4
:100D2000E0E1EBA781E090E0A0E0B0E08CA79DA718
:100D3000AEA7BFA78091C601FCA58F1708F45AC1C2
:100D40002091C7013091C8014091C9015091CA0159
:100D50006091CB017091CC018091CD019091CE0139
:100D6000A0E00E94DE0909F065C08BE10E94360315
:100D70006B017C018CE10E94360368AB79AB8AABD6
:100D80009BAB4090BF015090C0016090C10170903A
:100D9000C2019201A30160E070E080E090E008E20F
:100DA0000E949509322E432E542E652E762E872EC4
:100DB000982E292E88A999A9AAA9BBA98C199D09A1
:100DC000AE09BF095C016D019C01A60160E070E005
:100DD00080E090E004E10E949509E091C301F0E019
:100DE00031971F2F110F110B5F01C12ED12EE12E54
:100DF000F12E012F0E94C00859016A017B018C016C
:100E0000232D342D452D562D672D782D892D922D8E
:100E10000E94F1082093C7013093C8014093C90193
:100E20005093CA016093CB017093CC018093CD01A4
:100E30009093CE018091C501813009F452C0823077
:100E400009F0D8C080E10E9436036B017C018BA5BC
:100E50008E5F0E9436032B013C018BA58F5F0E94A1
:100E6000360368AB79AB8AAB9BAB560167011201C5
:100E700023019501A60160E070E080E090E051015F
:100E80006201E12CF12C00E010E00E94D509A09055
:100E9000C701B090C801C090C901D090CA01E090CC
:100EA000CB01F090CC010091CD011091CE010E94B8
:100EB0003A0804E10E94AE0959016A017B018C01E4
:100EC0002091BF013091C0014091C1015091C201F8
:100ED00068A979A98AA99BA90E9493080E94CC09B4
:100EE00020C08BA50E9436031B012C01A090C701D6
:100EF000B090C801C090C901D090CA01E090CB0168
:100F0000F090CC010091CD011091CE019B01A20186
:100F100060E070E080E090E00E943A0804E10E9406
:100F2000AE09922E532E842EB52FF62FE72F382E92
:100F3000492EAFEF0E94DE0991F1CE0101963C01EE
:100F4000830189A59AA5081B190B292D352D482D3C
:100F50005B2F6F2F7E2F832D942DA0E00E94DE0942
:100F600001F1EAE0AE2EB12CC12CD12CE12CF12CF8
:100F700000E010E00E94F108E0E3E90D9E2EAAE0F7
:100F80002A9F90181124F30191923F01922E532E23
:100F9000842EB52FF62FE72F382E492ED1CF00E023
:100FA00010E0E1E0F0E0EC0FFD1FE00FF11F108218
:100FB000DE011196159507950A0F1B1F0A171B07CF
:100FC00029F08C9192919D938083F8CF85EA90E0EF
:100FD0000E9483024AE06CA57DA58EA59FA50E9474
:100FE000F5026DE380E291E00E943602CE010196A7
:100FF0000E94D5028CA59DA5AEA5BFA50196A11DF9
:10100000B11D8CA79DA7AEA7BFA79BA59E5F9BA761
:101010009A3109F08FCE82E191E00E94D50268EE0C
:1010200073E080E090E00E9465010E94C00216CE4D
:10103000A1E21A2EAA1BBB1BFD010DC0AA1FBB1FDC
:10104000EE1FFF1FA217B307E407F50720F0A21B4E
:10105000B30BE40BF50B661F771F881F991F1A94BB
:1010600069F760957095809590959B01AC01BD01E5
:10107000CF010895DF93CF931F930F939A9DF02D87
:10108000219FF00D8B9DF00D8A9DE02DF10D039FAA
:10109000F00D029FE00DF11D4E9DE00DF11D5E9DD6
:1010A000F00D4F9DF00D7F936F93BF92AF925F93C2
:1010B0004F93D5010E94F0098B01AC01D7010E942A
:1010C000F009EB01E80FF91FD6010E948A082F9161
:1010D0003F91D6010E94F009C60FD71FE81FF91FE4
:1010E000AF91BF910E948A082F913F910E94F00911
:1010F000C60FD71FE81FF91FD6010E94F009E60F9F
:10110000F71F9801BE01CF0111240F911F91CF91BC
:10111000DF9108950E94F009460F571FC81FD91F7D
:1011200008F431960895E894DF93CF93FC01DB0136
:101130000E94F0097F936F93E9019A01AC01BF937C
:10114000AF933F932F93DF010E94F00926F46C1BAD
:101150007D0B820B930B9E01EB01FC010E948A0820
:10116000AF91BF912F913F910E948A08BE01CF019C
:10117000F9012F913F91CF91DF910895689401C0BB
:10118000E894F92FF12B12F00C94F208A0E0B0E0F3
:10119000ECECF8E00C946409092E059422F40E940A
:1011A0004E09112392F4F0E80F26FFEFE094F0943B
:1011B00000951095B094C094D094A194BF0ACF0A22
:1011C000DF0AEF0AFF0A0F0B1F0B0E94FD0807FC46
:1011D0000E944E09CDB7DEB7ECE00C94800968940C
:1011E00001C0E8948F929F92CF93DF930E94FD08F5
:1011F000DF91CF919F908F90089588249924F401D6
:10120000E401B0E49F93AA279A158B049C04ED0592
:10121000FE05CF05D007A10798F4AD2FDC2FCF2F07
:10122000FE2FE92D982C892E982F872F762F652F4A
:10123000542F432F322F2227B85031F7BF9127C0A8
:101240001B2EBF91BB27220F331F441F551F661F44
:10125000771F881F991F881C991CEE1FFF1FCC1F2A
:10126000DD1FAA1FBB1F8A149B04EC05FD05CE05DC
:10127000DF05A007B10748F08A189B08EC09FD09B3
:10128000CE09DF09A00BB10B21601A94E1F62EF410
:101290009401AF01BE01CD01000C089560957095D9
:1012A0008095909530954095509521953F4F4F4FA3
:1012B0005F4F6F4F7F4F8F4F9F4F08952F923F92F9
:1012C0004F925F926F927F928F929F92AF92BF9256
:1012D000CF92DF92EF92FF920F931F93CF93DF9302
:1012E000CDB7DEB7CA1BDB0B0FB6F894DEBF0FBE5F
:1012F000CDBF09942A88398848885F846E847D84AC
:101300008C849B84AA84B984C884DF80EE80FD80AD
:101310000C811B81AA81B981CE0FD11D0FB6F89423
:10132000DEBF0FBECDBFED0108950F93083090F0E2
:10133000982F872F762F652F542F432F322F222758
:101340000850F4CF220F331F441F551F661F771F0D
:10135000881F991F0A95B2F70F91089597FB10F80F
:10136000169400080F93083098F00850232F342F5C
:10137000452F562F672F782F892F902DF4CF059466
:1013800097958795779567955795479537952795BD
:101390000A95AAF70F9108952A0D3B1D4C1D5D1D5E
:1013A0006E1D7F1D801F911F08952A193B094C094E
:1013B0005D096E097F09800B910B08950024A7FD3C
:1013C00000942A173005400550056005700580051A
:1013D00090050895EE0FFF1F0590F491E02D0994FC
:1013E000A29FB001B39FC001A39F700D811D112466
:1013F000911DB29F700D811D1124911D089581E0F2
:0C14000090E0F8940C94040AF894FFCFDC
:10140C000000000036029F01CD019E02FE01DC01AE
:06141C00F0010D0A0000C2
:00000001FF
